:020000041000EA
:1000000000B5324B212058609868022188439860DF
:10001000D860186158612E4B002199600221596106
:100020000121F02299502B49196001219960352056
:1000300000F044F80222904214D00621196600F024
:1000400034F8196E01211966002018661A6600F04E
:100050002CF8196E196E196E052000F02FF8012189
:100060000842F9D1002199601B49196000215960AB
:100070001A491B48016001219960EB211966A021F2
:10008000196600F012F800219960164914480160C1
:100090000121996001BC002800D000471248134993
:1000A000086003C880F30888084703B5996A0420EC
:1000B0000142FBD001200142F8D103BD02B5186610
:1000C0001866FFF7F2FF186E186E02BD00000240BE
:1000D000000000180000070000035F00212200005C
:1000E000F4000018222000A00001001008ED00E03C
:1000F00000000000000000000000000074B24E7A12
:1001000000200420F7010010C3010010C5010010F9
:10011000C1010010C1010010C1010010C101001097
:10012000C1010010C1010010C1010010C701001081
:10013000C1010010C1010010C9010010CB01001065
:10014000CD010010CD010010CD010010CD01001037
:10015000CD010010CD010010CD010010CD01001027
:10016000CD010010CD010010CD010010CD01001017
:10017000CD010010CD010010CD010010CD01001007
:10018000CD010010CD010010CD010010CD010010F7
:10019000CD010010CD010010CD010010CD010010E7
:1001A000CD010010CD010010CD010010CD010010D7
:1001B000CD010010CD010010CD010010CD010010C7
:1001C00000BE00BE00BE00BE00BE00BEEFF3058054
:1001D000103800BEF2EB8871289A0010489A00107F
:1001E0003402001090A31AE700201F49086006C8D7
:1001F00081F3088810471D48006800282FD10DA4FE
:100200000ECC002902D000F012F8F9E71849194A7B
:10021000002000E001C19142FCD1174988471749ED
:1002200088471749884700BEFDE701C901C29A42C5
:10023000FBD37047489A0010C0000020540F0020E4
:10024000DCA800100000042000000420DCA800103E
:10025000001004200010042000000000704709482E
:1002600004F008F90047000008ED00E0000000D0AD
:10027000580F0020E81D0020392A00107D0E0010C4
:100280002D2B00105756000006005250ABB36053A0
:100290009895001006005250861C0302A895001085
:1002A000060052505422A29DBC95001005005250E9
:1002B000DE65F468DCA80010F8B5C04606480749BA
:1002C000091A8B10C90FC91810B5491003D0044B77
:1002D000002B00D0984710BD540F0020540F002071
:1002E00000000000054B10B5002B03D00449054861
:1002F00000E000BFFFF7E2FF10BDC04600000000B5
:10030000581D00209886001070B50025234805F080
:100310002BF9234807F072FB224805F025F9224803
:1003200007F01AFC214805F01FF9214807F0D4FC1A
:10033000204805F019F9204E300007F099FD1F4CB8
:10034000200007F095FD1E4805F00EF91D4807F046
:10035000EBFF1D4805F008F91C4807F045FF1C4855
:1003600007F042FF1B4807F03FFF1B4807F03CFF28
:100370001A4807F039FF1A4807F036FF194805F008
:10038000F3F83000291C07F0DBFD291C200007F0E2
:10039000D7FD154805F0E8F870BDC04698860010F6
:1003A000201D0020BC860010C01D0020CC8600103F
:1003B000381D0020E486001004180020DC16002000
:1003C000F88600102C180020088700105018002014
:1003D00060180020701800200019002084180020E8
:1003E000981D00201887001028870010F0B5D64609
:1003F0004F464646C0B5431EDBB2040082B0022B16
:100400006CD8854A9B009B58181C984604F05AFFEC
:1004100006000F00814B1868994604F053FF0096C0
:1004200001970B00020021007D4805F085F94B463D
:100430001C684146201C04F0FDFE002800D0E6E0C8
:100440004146201C04F00CFF002870D0754805F0D0
:100450008BF80124744B2200462118009A4607F0BD
:100460007DFC01F0F7FD002900D1CAE0FA2200234B
:10047000920004F097F80500002C36D001F0EAFD58
:10048000002917D1FA21890004F04EF8674B401B70
:10049000984218D8664807F0E9FB0021041C04F0D4
:1004A000D7FE00284DD1642001F084FC01F0D2FD7C
:1004B0000029E7D0FA220023920004F073F85B4B86
:1004C000401B9842E6D9504607F09CFC594805F07D
:1004D0004BF8594807F092FF00202CE0802380273A
:1004E000DB0500269846FF0594E701F0B3FD0029DF
:1004F00018D0FA220023920004F054F84B4B401B12
:100500009842E0D84A4807F0B1FB0021041C04F0EF
:100510009FFE00284AD1642001F04CFC01F09AFDB6
:100520000029E6D1FA21890003F0FEFFE6E74348FF
:1005300005F01AF8012002B0E0BCBA46B146A84660
:10054000F0BD201C04F0BEFE0096019702000B00D7
:100550003B4805F0F1F8FC214046890504F021FEF6
:10056000011C201C04F074FE002846D0FC214046EB
:10057000890504F019FE011C201C04F061FE00280E
:1005800091D04B4664201C6001F014FC504607F0EB
:1005900039FC4B46186804F095FE02000B00294810
:1005A00005F0CAF8244807F04BFFC3E7201C04F00D
:1005B00089FE0096019702000B00214805F0BCF867
:1005C000FC214046890504F0ECFD211C04F038FEB6
:1005D000FC218905002808D1404604F0E5FD211CD6
:1005E00004F028FE002896D007E0404604F0DCFD29
:1005F000211C04F02DFE0028C3D1134804F0B4FFE1
:10060000BFE7FA21890003F08FFF050034E70F48A8
:1006100004F0AAFF00241DE79C960010580E00204D
:100620003089001094890010381D00201027000028
:10063000C01D0020008A00102C180020B88900106E
:10064000D8890010388A0010188A001070890010AC
:1006500070B52A4804F088FF294D01224621280060
:1006600007F07CFB01F0F6FC002941D0FA220023C0
:10067000920003F097FF040001F0ECFC002921D068
:10068000FA220023920003F08DFF1E4B001B9842BC
:1006900020D81D4807F0EAFA0021061C04F0D8FD16
:1006A000002821D0642001F085FB1849301C04F09B
:1006B000C7FD0028E0D0280007F0A4FB144804F090
:1006C00053FF70BDFA21890003F02EFF0D4B001B74
:1006D0009842DED9280007F095FB0E4804F044FF4D
:1006E0000D4807F08BFEECE7642001F063FBC3E7E5
:1006F000FA21890003F018FF0400BDE7608A0010AA
:10070000381D002010270000C01D002000002040E0
:10071000988A0010848A00102C18002070B52A488E
:1007200004F022FF294804F01FFFFA22284C29492F
:100730002000520007F05EFC237F002B08D0200031
:1007400007F084FC0A2001F035FB237F002BF6D153
:100750000521214804F0F0FF204801F02BFB204840
:1007600004F002FFFA2200212000520007F042FCB0
:10077000237F002B08D0200007F068FC0A2001F03E
:1007800019FB237F002BF6D1164D174C2B781748F9
:10079000013BE25C0132E25404F0E6FE29781448A1
:1007A0006318013B1A78032304F0C6FF114807F0D1
:1007B00047FE29786418013C2378022B00D870BDCD
:1007C0000D4804F0B9FFFAE7B48A0010D88A001087
:1007D000041800200000B442EC8A001088130000C6
:1007E0001C8B0010E21D0020801800202C8B0010B4
:1007F000408B00102C1800205C8B001010B5314885
:1008000004F0B2FE304804F0AFFEFA222F4C30491B
:100810002000920007F0EEFB237F002B08D0200081
:1008200007F014FC0A2001F0C5FA237F002BF6D153
:10083000284804F099FE284801F0BCFA274804F043
:1008400093FEFA2200212000920007F0D3FB237FC1
:10085000002B08D0200007F0F9FB0A2001F0AAFACB
:10086000237F002BF6D1002200231D4C1D4822803F
:100870001D4AA370137004F077FE1C4807F0E0FDDA
:100880001B4804F071FE1B4804F06EFE1A4804F089
:100890006BFE2178194804F04FFF6178184804F086
:1008A0004BFFA178174804F047FF6378217816487A
:1008B000C918A378C91804F03FFF144804F054FE87
:1008C00010BDC046CC8D0010F08D0010DC1600204D
:1008D0000000B4420C8E0010B80B0000348E0010E3
:1008E000801800204C8E0010E21D00202C180020E3
:1008F0004C870010AC870010D087001030880010A3
:100900005888001080880010A8880010D088001037
:10091000F0B5C646204800B507F0A2F80300303B0A
:10092000DBB2092B03D81D4C2578012D02D080BCE9
:10093000B846F0BD1A4E1B4F3378F85401332A20C5
:10094000337004F0C7FD3378032BF0D900230A205D
:1009500098463B7104F0BEFD3800134907F0C6FD10
:1009600000280AD1114804F0FFFD114B11481D70F9
:1009700007F020FD02232370D9E70F4804F0F4FDAF
:100980000C4807F03BFD4346052200213800337038
:1009900004F00AFDCBE7C046201D0020DB1D00202F
:1009A000DA1D002014190020A8960010748E001083
:1009B000DE1D00202C1800209C8E0010F0B5C646CD
:1009C000494C00B52378032B16D0052B42D0072BBA
:1009D00002D080BCB846F0BD444807F04DFC00286A
:1009E00042D12378072BF4D1414807F045FC002879
:1009F000EFD009232370ECE73E4D2B78002BE8D194
:100A00003D4E300007F038FC002803D03B4B1B78EC
:100A1000022B55D93A4F380007F02EFC002803D09E
:100A2000364B5B78022B3FD9364B1800984607F0BF
:100A300023FC00281BD0314B9B78022B17D80323B3
:100A400031482B7004F090FD304807F0F9FC042386
:100A50002370BEE72E4807F00FFC002802D00623C3
:100A60002370B6E72378B2E708232370B1E730009C
:100A700007F002FC002803D0204B1B78022B23D860
:100A8000380007F0F9FB002803D01C4B5B78022BE1
:100A900022D8404607F0F0FB002803D0174B9B7884
:100AA000022B05D8237890E702231A482B70C9E758
:100AB000194804F059FD154807F0A0FC237884E795
:100AC000012316482B70BDE7154804F04DFD0F4873
:100AD00007F094FC237878E7124804F045FD0B48B2
:100AE00007F08CFC237870E7DB1D002084180020C1
:100AF000981D0020E21D00205018002080180020C2
:100B00006018002070180020EC8E00102C180020B7
:100B100000190020D48E0010348F0010BC8E0010FD
:100B2000048F00101C8F001070B5A64C23780A2B80
:100B300005D8A54A9B00D3589F46FFF73FFF70BDDD
:100B4000A24804F011FDA24804F00EFDA14D2800BA
:100B500004F00AFDA04804F007FDA04804F004FDDD
:100B60009F4804F001FD280004F0FEFC9D4804F0BD
:100B7000FBFC9D4804F0F8FC0A2004F0ABFC0122C9
:100B80009A4B9B481A7004F0EFFC9A4804F0ECFC76
:100B9000994804F0E9FC994D9948297804F0CCFD76
:100BA0006978984804F0C8FDA978974804F0C4FD16
:100BB0006B7829789548C918AB78C91804F0BCFD42
:100BC000934804F0D1FC934804F0CEFC924804F022
:100BD000CBFC924804F0C8FC914804F0C5FC914855
:100BE00004F0C2FC904804F0BFFC03232370A6E786
:100BF0008E4E3078FFF7FAFB051E00D186E0317883
:100C00008B4804F099FD8B4804F0AEFC052323705B
:100C100095E7FFF783FD0022844B784D1A702B78FF
:100C2000032B7CD0724804F09FFC724804F09CFCBB
:100C3000714804F099FC2978714804F07DFD6978C9
:100C4000704804F079FDA9786F4804F075FD6B7861
:100C500029786E48C918AB78C91804F06DFD6C4846
:100C600004F082FC0323237069E70A2004F032FCBD
:100C7000714804F079FC574C200004F075FC6F4873
:100C800004F072FC200004F06FFC6D4804F06CFC72
:100C9000200004F069FC544804F066FC0A2004F0CB
:100CA00019FC684C200007F085FBFA20C00001F019
:100CB00081F8654804F058FC644804F055FC2000B5
:100CC00007F0D2FB642001F075F8F8E7FFF796FD16
:100CD00003235F48237004F047FC5E4804F044FCA3
:100CE0002DE75D4804F040FC564807F087FBFA20EA
:100CF000800001F05FF8FAE7012323701FE7574CEB
:100D00002378002B4BD0FFF703FE18E7544804F07C
:100D10002BFC3570FFF79CFC032323700FE76B78E7
:100D2000032B00D07EE7AB78032B00D07AE70A20B4
:100D300004F0D0FB404804F017FC4A4804F014FCCF
:100D4000294804F011FC0A2004F0C4FB284804F0F0
:100D50000BFC284804F008FC274804F005FC29781F
:100D6000274804F0E9FC6978264804F0E5FCA978F6
:100D7000254804F0E1FC6B7829782448C918AB7841
:100D8000C91804F0D9FC224804F0EEFB364804F000
:100D9000EBFB364804F0E8FB07232370CFE60B4853
:100DA00004F0E2FB324804F0DFFB324804F0DCFBE5
:100DB0000D4804F0D9FB304804F0BEFC0123237039
:100DC000A1E7C046DB1D0020709600104C8F00107C
:100DD0008C900010308C0010CC9000100C91001002
:100DE0004C9100108C910010FC8C0010DC1D002038
:100DF0004C870010AC870010D087001080180020AE
:100E0000308800105888001080880010A8880010D2
:100E1000D0880010CC910010DC91001004920010DA
:100E2000349200105C92001080920010E21D0020AD
:100E3000AC920010D0920010848B0010708C0010C7
:100E4000BC8C00102C180020A88D0010B09300104E
:100E5000DC9300100494001038940010D51D00207D
:100E6000F89200101C9300105C9300108493001003
:100E7000FC8F00103C9000107C900010F0B5DE4616
:100E800057464E464546E0B583B004F061FCFA2073
:100E9000C00000F08FFF0A2004F01CFB244804F07F
:100EA00063FB244804F060FB234804F05DFB234807
:100EB00004F05AFB0A2004F00DFBFFF725FA204C42
:100EC000200007F041FA1F4804F04EFB01221E4BA0
:100ED0001E4F1A701E4B1F4E9B461F4B1F4D9A46AE
:100EE0001F4B99461F4B98461F4B0193584607F0DE
:100EF000CBF9504607F0C8F9484607F0C5F9404617
:100F000007F0C2F9380007F0BFF9300007F0BCF96C
:100F1000280007F09BF8019807F098F8200007F0E8
:100F2000A3FAFFF701FE0A2000F044FFDEE7C04607
:100F3000848B00105894001094940010FC8C0010C6
:100F40002C180020D0940010DB1D002084180020F5
:100F500050180020981D0020601800200418002060
:100F60007018002000190020DC16002010B5204A5F
:100F70002049214806F032FD0B220A211F4806F0C5
:100F8000E7FD0E230D220C211D4806F099FEFA22E2
:100F90000F211C4B52001C4806F05CFFFA22194B33
:100FA00052001021194806F055FF1A21184807F081
:100FB000AFF901221121174807F00CF90122122183
:100FC000154807F007F901221321144807F002F928
:100FD00001221421124807F0FDF8012215211148C1
:100FE00007F0F8F8012216210F4807F0F3F810BDBA
:100FF000B0960010B4960010201D0020C01D0020E7
:10100000381D0020C409000004180020DC16002050
:101010002C180020501800206018002070180020A4
:101020000019002084180020981D0020094A10B5DE
:1010300094464024830063441A68C00062408034B0
:1010400014408022520113431C60034B9C466044B1
:10105000416010BD04C0014000400140074B8000CA
:101060009C4660440368C90092000A435A400C231E
:101070001A4080235B0103431A60704704C001409B
:101080000123D0228340120693629361094A4021D2
:101090009446830063441A68C0004A40803111407E
:1010A0008022520113431960034B9C460523604480
:1010B0004360704704C0014000400140024B186883
:1010C0008007C00F7047C04600C0064070B5EFF300
:1010D000108C72B60D4D2B68002BFCD0BFF35F8FC8
:1010E0000724CB08C618C05C01230C40A3401C0099
:1010F0000440034207D118433070BFF35F8F2C6068
:101100008CF3108870BD100001F014FD2C0100D08C
:10111000F8B54746CE46884680B5EFF3108C72B6D8
:101120001C4D2C68002CFCD0BFF35F8F9A4222D854
:1011300007210126894602E00132934218D34D4629
:1011400037001540AF40D4080119045D2742F3D1A0
:1011500010003C430C70BFF35F8F00220D4B1A60F0
:101160008CF3108800280EDBC0BCB946B046F8BD31
:1011700001204042EFE7BFF35F8F00232B608CF329
:101180001088012040424346002BEDD0089801F022
:10119000D1FCC0462C0100D00021044B044ABFF30F
:1011A0005F8F02C39342FAD17047C046000100D05E
:1011B000800100D0044A1078431CDBB2172B00D901
:1011C000102313707047C0465C0E002010B5064B0C
:1011D000064C82B00100009318221F232000FFF765
:1011E00097FF02B010BDC046EC9400104C180020D0
:1011F00001238340002904D0034A1360034A13608B
:101200007047034A1360FBE780E200E000E100E082
:1012100080E100E001238340014A13607047C0462B
:1012200000E200E0084B10309B688000C358002BA0
:1012300007D0064A00209B1A2F229A424041C0B292
:1012400070470020FCE7C04600ED00E0600E002083
:10125000024B10309B688000C058704700ED00E0E2
:1012600070B50D00EFF3108672B60F4A1368002BAD
:10127000FCD0BFF35F8F0D4B10309B6884001B596F
:101280000B4A934203D09D4201D001F06BFC074B07
:101290009B681D51BFF35F8FBFF35F8F0022024B2E
:1012A0001A6086F3108870BD240100D000ED00E0C4
:1012B000CD010010F0B557464E46DE464546E0B536
:1012C00085B0060000911700EFF3108B72B66A4AE2
:1012D0001368002BFCD0BFF35F8F0025674B5D5771
:1012E0009A46002D00DAA9E06B00654C01935B196A
:1012F0009B009846A146C1444B4652469B79103606
:101300001370604BB6009B6899590B1B2F2B33D978
:101310005D4B994200D0ACE0019B42469C465B4B42
:101320006544AD0063535A4B0232A218043B9B1A2A
:101330001B05584A5B0D651913436B80564B012101
:10134000AB80FF23AB71009BEF71AB604B460B434F
:1013500019004C4B9B689951BFF35F8FBFF35F8FB0
:101360000022454B1A608BF3108805B0F0BCBB46D9
:10137000B246A946A046F0BD01200A008243D379B7
:101380008C46BB4231D84546130044491B1B5B4188
:101390005943090D3D4B63533D4B02356519043BE1
:1013A0005B1B1B053B4D5B0D2B43AA464D466B80DB
:1013B0000425AC465546E044131F44441B1B1B0543
:1013C0005B0D1D434B46997100999D80996049467C
:1013D000DF71334B01431360BBE75800C018800036
:1013E0002018C179B9422FD902000623D356002B09
:1013F000F3DA02932B4B61460393131D9A460423A1
:101400005B429C46E14450464B461B1A1B055B0D54
:101410009C46204B95719846634640460343938013
:10142000019B5A199200039BA418A380029B1C4A9B
:10143000A371009B2260E771A3608AE701F092FB31
:10144000002553465D574FE7908802934005131DD2
:101450009A46031561469C464046D4446346043090
:101460002018181AE0230005400D1B0218430390B2
:10147000C5E701F077FB4FE7240100D0DD1D002018
:10148000600E002000ED00E0CD01001000A1FFFF84
:10149000900E002000E0FFFF01BDFFFFAAAA0000A0
:1014A0000148804701BD0000F8B5DE4657464E466C
:1014B00045460C00E0B5EFF3108872B65B4A13683E
:1014C000002BFCD0BFF35F8F594B5A499A68030039
:1014D00010339F00D5599C468D4238D0A54248D044
:1014E000554EAA1B2F2A32D8012213008340994659
:1014F0005248006803409A464B4651480360BFF388
:101500005F8FEFF305839B46002B34D09C4501D0C1
:1015100001F028FB01232A009A439068844208D1F5
:1015200072E04B005B189B00F3189868A04232D021
:101530001A00062151560029F3DA844250D053464E
:10154000002B24D04A463F4B1A603C4B1A60384B64
:101550009B68DD51BFF35F8FBFF35F8F0022334B7A
:101560001A6088F31088F0BCBB46B246A946A04674
:10157000F8BD0D00EBE72B00934398681A008442F6
:10158000D7D106201856002809DA0D0030E04A4667
:101590002B4B1A60DBE706201856002821DB42009F
:1015A0001118890074188B46A1689960E179D97186
:1015B000062161569971002924DBA488F11A64057B
:1015C00024155C44091909051F4C490D21439980D4
:1015D00013181E4A9B001178F31899711070AEE72A
:1015E00013005946002914D1FF3191711849918097
:1015F00016490A789A71174A9B1B5B415A43120D90
:101600000A709CE71249E2E70620105613000028F2
:10161000C5DA114A1149D21A083A5002400D014365
:1016200099800F4952080A43DA8088E7240100D0E4
:1016300000ED00E0CD010010600E002000E100E0B0
:1016400080E100E080E200E000E0FFFFDD1D00201F
:1016500001BDFFFFAAAA00009A0E002000F0FFFFC4
:1016600000F8FFFF70B5EFF3058101240443EFF3A9
:10167000108C72B6214A1368002BFCD0BFF35F8F29
:101680001F4B05001F4AED1A6D416A43120D1E4D96
:101690008900AE6852B27658A6421CD0062159562F
:1016A00091421CD012215956914222D01E215956E6
:1016B000914220D02A2159560324914210D0134B35
:1016C00019781A708171BFF35F8F00220B4B1A607B
:1016D0008CF3108870BDAB680D4C5C50EFE70024B4
:1016E0006100091989005B18FF21997109499980E6
:1016F000E5E70124F4E70224F2E7C046240100D024
:10170000600E0020AAAA000000ED00E0DD1D002010
:10171000CD01001001BDFFFF054B064A1360064ACC
:10172000136053609360D36013615361936170479A
:101730008080808000E400E004E400E010B5084B05
:10174000084C82B001000093002205232000FFF71F
:10175000DFFC002801DB1F23181A02B010BDC046B1
:1017600008950010E41D0020024B9C46614489004E
:10177000016070474000003410B50400FFF71AFD07
:1017800001002000FFF7F0FFFF232371BFF35F8FFD
:1017900010BDC04610B50400FFF70CFD010020008D
:1017A000FFF7E2FFFF23A380BFF35F8F10BDC046AA
:1017B00010B504000120FFF709FD034BC3189B007F
:1017C0002360BFF35F8F10BD40000034034B9C4685
:1017D000614489000160BFF35F8F704740000034AF
:1017E00083680B4810B584466144624412010901C4
:1017F00059189B185C684A680120944201D802D0AD
:101800000020C0B210BD1A680B689A42F9D8F7E7F9
:10181000FFFFFF0F0A4B1968EFF3108072B60A68DA
:10182000002AFCD0BFF35F8F1B68BFF35F8F0022DD
:101830001A6080F3108840BF002000217047C04626
:10184000941D0020F8B557464E464546DE46E0B5A5
:1018500098460CAB1C780DAB1B78070091469A4656
:101860000668002C57D1B47B002C3AD06500316853
:101870002D19033D49194B78B373002B00D1F37335
:1018800000238B704B700B702D4BE218BB6812015C
:101890009B184A461A6042465A600A9A9A600B9A06
:1018A000DA6000238B704B700B70737B9B46002BB0
:1018B00024D0220073685946B06898475B465B00A5
:1018C00032685B44033B5519D21800280FD05B46A1
:1018D000AB701378002B24D15B46147073735C4596
:1018E0000DD0F0BCBB46B246A946A046F8BD9470E8
:1018F0002B78002B00D053705B462B7074734A46D4
:101900004346387D00F006FC051E11D10E9B002BCE
:10191000E7D01D70E5E7650031682D19033D4919D1
:10192000B2E76B705B46147073735C45D9D1E6E720
:101930005346002BEAD12100386800F021FEE5E78C
:10194000FFFFFF0F664B8200F0B5D4580023DE4640
:1019500057464E4645469B46E0B58DB0099000F08F
:1019600079FB626806000F00EFF3108872B6136807
:10197000002BFCD0BFF35F8F23689C465B7B9946AE
:10198000002B0DD16368BFF35F8F4A461A6088F35E
:1019900010880DB0F0BCBB46B246A946A046F0BDCB
:1019A000504BA5684B441B01ED182868696802007C
:1019B0000B00921BBB41002B0EDD02000B000998AF
:1019C00000F0A8FB6368BFF35F8F5A461A6088F384
:1019D00010880028C3D1DCE7002B01D1002AECD10C
:1019E0000021604600F038FDAB6802002868696895
:1019F0009A46EB680A900B9108934B465D1EE3688C
:101A0000585D6368000202432261BFF35F8F5A464C
:101A10001A6088F310885346002BBAD04B460899B9
:101A20001843D047626806900791EFF3108872B6AA
:101A30001368002BFCD0BFF35F8F079B002B27DBC5
:101A4000069A079B1100194302D02369002B3BD152
:101A50002368D97B002906D01A684800411852181B
:101A60004946033A51709A7B002A01D14A469A733B
:101A70004A46DA73E268535D013353555B4623618E
:101A80006368BFF35F8F5A461A6088F3108866E771
:101A90002369002BDCD00A9A0B9B06980799121A2F
:101AA0008B41002B02DA01220F4B5242002104919C
:101AB0000131039149460291089920000191514654
:101AC0000091FFF7BFFED9E700F0C4FA069A079B22
:101AD00012184B41002BE9DA0122034B5242E5E791
:101AE000781D0020FFFFFF0FFFFFFF7F10B5144C94
:101AF0006368002B04D00A211248FFF735FE10BDA1
:101B00002300114A1021206800F0B2FB032000F0EE
:101B100095FA032000F066FB03200C4900F0B4FAAC
:101B2000FFF748FB0A4B9C4603232375D0231B0673
:101B30001B6860446375074B80006060DC60DAE717
:101B4000A80E0020941D0020E11700104519001078
:101B500040000034781D002000487047A80E002087
:101B6000F0B54E465746DE464546E0B587B0019390
:101B700012AB1B780600059300239A469946009203
:101B80007268EFF3108B72B61368002BFCD0BFF3B2
:101B90005F8F3568AC7B002C00D170E067002B684C
:101BA0003F19033FDB195A78AA73002A00D1EA7360
:101BB000464AA118B26809015218009801991060AC
:101BC0005160109991601199D1604A469A705A708B
:101BD0001A706B7B9846002B61D022006B684146DF
:101BE000A868984743465B002A684344033BD719DB
:101BF000D21800284CD04346BB701378002B00D07D
:101C00007B70434614706B73444549D0F3681B19CD
:101C1000013B18787368BFF35F8F4A461A608BF3F5
:101C200010885346002B08D10002204307B0F0BCB7
:101C3000BB46B246A946A046F0BD059B002B43D04B
:101C4000109B00201199984703000B433CD0029051
:101C50000391002931DA009B019C0299039A5B1AD7
:101C600094418022009301941206944204D30123EC
:101C7000174C5B4200930194059B9A4680E773687A
:101C8000BFF35F8F1C608BF3108801204042CDE7CB
:101C900094703B78002B00D0537043463B706C73BC
:101CA000307D009A019B00F035FA82460028ADD0C5
:101CB0002100306800F064FCA8E700F0CBF9029B3B
:101CC000039C1B184C41CCE70020AFE7FFFFFF0F40
:101CD000FFFFFF7F407D7047F0B5C64600B584B07A
:101CE00004000D0000F0B6F924184D41002D02DA71
:101CF00001242B4D644206267642F71736196F41B0
:101D0000AF4214D811D000F0A5F932003B00121AEE
:101D10008B41002B15DC002B3ED02000290000F069
:101D2000A3F904B080BCB846F0BDA642EBD90026AA
:101D3000002700F08FF932003B00121A8B41002B74
:101D4000E9DD002302930193164B320000931648FD
:101D50003B00FFF705FF0130DFD000233900984634
:101D6000124A1348536A994204D8976ABE42D4D99A
:101D70009942D2D10768EFF3108C72B63B68002B02
:101D8000FCD0BFF35F8F0368BFF35F8F47461F60D0
:101D90008CF3108820BFE5E7002ABED0D1E7C0460B
:101DA000FFFFFF7F15180010A80E0020004005401F
:101DB000941D0020F0B5C64600B584B0040000F0C4
:101DC00049F9FA2206000F002000002300219200AA
:101DD00003F0CAF98019794104000D1E02DA0124CA
:101DE0002A4D644206267642F71736196F41AF42F4
:101DF00014D811D000F02EF932003B00121A8B419A
:101E0000002B15DC002B3ED02000290000F02CF91F
:101E100004B080BCB846F0BDA642EBD9002600272E
:101E200000F018F932003B00121A8B41002BE9DD5B
:101E3000002302930193164B3200009315483B0098
:101E4000FFF78EFE0130DFD0002339009846124A9A
:101E50001248536A994204D8976ABE42D4D999422B
:101E6000D2D10768EFF3108C72B63B68002BFCD020
:101E7000BFF35F8F0368BFF35F8F47461F608CF32C
:101E8000108820BFE5E7002ABED0D1E7FFFFFF7F23
:101E900015180010A80E002000400540941D0020D9
:101EA000F0B5EFF30583C64600B505000C0084B01D
:101EB000002B0FD02F4A0020536AA34206D3926A08
:101EC0001B1B591E8B41AA424041184304B080BCE1
:101ED000B846F0BD284E02930193284B02000093B0
:101EE00030000B00FFF73CFE00280CDC214A0020EC
:101EF000536AA342EAD3926A1B1BAA4240415A1E6C
:101F000093411843E2E720BF7268EFF3108772B67F
:101F10001368002BFCD0BFF35F8FC3B29846FF223B
:101F2000336802409C465B7B43450DD063465100BD
:101F30001B6889185B18033B9B78002B04D132691E
:101F4000904209D1336107E0F168030A8A18013A27
:101F50001278DBB29A4207D07368BFF35F8F00221A
:101F60001A6087F31088A5E74146604600F008FB39
:101F7000F2E7C04600400540A80E002015180010EA
:101F8000F0B5EFF30582D6464F4646461000C0B581
:101F90001038EFF3108872B6214C2368002BFCD068
:101FA000BFF35F8F0123190081401E4D1F0069633D
:101FB000AA461D4D29601D4D2E78AC463500C54002
:101FC0002F402B4215D053465F6A194B8500EB58C2
:101FD0009F4218D36246174B8E43EB581670BFF3DF
:101FE0005F8F0022226088F31088002B06D098476C
:101FF00004E0BFF35F8F276088F31088E0BCBA4627
:10200000B146A846F0BD0C4B92009C466244136852
:102010001360BFF35F8F0023236088F31088EDE720
:10202000280100D0004005403C700540E31D002021
:10203000B01D0020CC160020D03F054010B5034B4A
:1020400001001800024AFFF741F810BDD91D002019
:1020500024950010034B596A0A00986A596A8A420B
:10206000FAD1704700400540064A536A9942FCD8AD
:1020700007D1044B02E05A6A914202D19A6A824225
:10208000F9D370470040054070B504000D00EFF330
:10209000108672B61A4A1368002BFCD0BFF35F8F0C
:1020A000002D1BD02000FFF7D3F8164981420AD03B
:1020B0002000FFF7D5F801212000FFF799F8012350
:1020C000A340114A1360114BA400E550BFF35F8F8A
:1020D00000220B4B1A6086F3108870BD0121A140CD
:1020E0000A4BA200D5500A4B20001A788A430549B2
:1020F0001A70FFF7D9F900212000FFF779F8E5E71A
:10210000280100D0811F001038600540CC16002047
:10211000E31D0020F0B54F46D6464646C0B5070041
:102120002B4C616A0D00A66A616AA942FAD18B4202
:1021300008D805D00120E0BCBA46B146A846F0BD9B
:10214000B242F7D9EFF3108A72B62248016800292B
:10215000FCD0BFF35F8F0125BD401F491C4C884652
:10216000097889462943C9B28C46414660460870C1
:10217000391D890065630A511849B8004350216A26
:102180000020294219D0616A0800A66A616A81426A
:10219000FAD18B4219D801D1B24216D8CC450BD016
:1021A0000B4B1F221D625D6301233A4093400C4A92
:1021B000136043464A461A700120BFF35F8F002226
:1021C000044B1A608AF31088B5E70020F5E7C04693
:1021D00000400540280100D0E31D0020B01D002074
:1021E00080E200E0EFF3108C72B60A490B68002B16
:1021F000FCD0BFF35F8F01238340074A0748136277
:1022000002789A430270BFF35F8F00230B608CF358
:1022100010887047280100D000400540E31D0020D1
:1022200070B506000D00140000291CD0002A12D041
:1022300073688068984763006A0031681B195219F7
:10224000033B033ACB188918002806D09D700A7802
:10225000002A0AD10C70280070BD8C701A78002AF0
:1022600000D04A701D702000F6E75A700C70F2E73B
:1022700010B583600023CCB2437301334260047312
:102280008373C4730068421C012C05D90133DBB28F
:10229000137003329C42F9D1FF230B405A00D3182C
:1022A000C01800230338437010BDC046F8B5CE46B1
:1022B000474605000C0080B5002907D04E00036892
:1022C0007618033E9A195778002F04D12000C0BC1D
:1022D000B946B046F8BD7900C91903398846434468
:1022E000597889460021597051706B683A00210075
:1022F0008068984743462A68D3189219002811D05D
:102300009C701178002900D0597017702700494639
:102310002800FFF7CBFF390002002800FFF780FFFD
:102320000400D3E797701978002900D051701C7011
:10233000EDE7C046F8B557464E464546DE464C00EA
:10234000E0B5641817000268033C0500105D13191E
:102350000E009C46002854D0430098461B18033BAF
:10236000D31859788A46002920D1002F13D0EC7B4E
:10237000002C51D063001B19D318033B5E70AB7B5C
:10238000002B3CD0EE73002807D04300984643460C
:1023900019180339531800229A70002362465370AB
:1023A000F0BCBB46B246A946A046F8BD4900514420
:1023B0000339521851788846002151708946597066
:1023C000524601002800FFF72BFF43468246002BB0
:1023D00007D05B0029684344033BCB185A78002A96
:1023E0001FD1424651462800FFF71AFFA4462A682B
:1023F0009444002FC7D0EC7B002CC0D0BAE7AE735A
:10240000C0E7002FC9D0EC7B002CB3D1AB7B002BF5
:1024100020D1A973E973C0E7AB7B002BEFD0EE733B
:10242000B5E75000801803380918487883464846B5
:102430004870587041462800FFF7F2FE5946804622
:102440002800FFF733FF414602002800FFF7E8FEAF
:102450008046C6E7E973A0E7F8B557464E464546BD
:10246000DE46E0B5467B02687500AD19033D0F00FE
:10247000515D531904009C46002956D04B009846E4
:102480005B18033BD31858788246002822D1002FCE
:1024900013D0E57B002D53D06B005B19D318033BA1
:1024A0005E70A37B002B3ED0E673002907D04B0063
:1024B0009846434658180338131800229A70002390
:1024C0006246300053706173F0BCBB46B246A94609
:1024D000A046F8BD4000504403381218507880469A
:1024E000002050708146587052462000FFF798FE39
:1024F00043468246002B07D05B0021684344033BE0
:10250000CB185A78002A20D1424651462000FFF7C6
:1025100087FEAC46226801009444002FC5D0E57BBD
:10252000002DBED0B8E7A673BEE7002FC7D0C57B8D
:10253000002DB1D1837B002B20D18673C673BEE7FB
:10254000A37B002BEFD0E673B3E75000801803386D
:10255000091848788346484648705870414620001C
:10256000FFF75EFE594680462000FFF79FFE41467A
:1025700002002000FFF754FE8046C5E7C6739EE7C1
:1025800070B5040000292CD0437B8B422ED0056807
:1025900048004018033828188278002A21D05300B8
:1025A0009B18033BEA5CEE188A4202D11BE0002A2A
:1025B00008D053009B18033BEB185A788A42F6D197
:1025C00042785A7000230122837043702000FFF785
:1025D000B1FE617B02002000FFF722FE6073012044
:1025E00000E0002070BD43783370EBE70122190052
:1025F000FFF7A0FEF2E7C04610B50C2082B000F055
:10260000B1F9FEF75BFD002810D08B4B8B488B494E
:102610008B4A186059609860D96018615961986157
:10262000D961186259625A6202B010BD854CA06728
:1026300000F0EEF90122844B1A60636C012BFCD18F
:102640000322824B1A607F4A936B012BFCD101332A
:1026500001217F4A7F480093043300F031F90523BC
:102660007D4A009301217D4800F02AF97C4B5A688D
:10267000FF2A02D8802252005A608022734B6E4C8F
:1026800012011A602169002907D0606901F04CFF2E
:10269000013043001B18033BFDD2E023704A714810
:1026A00011680B40036002231168594001330B404D
:1026B0000421036093681942FCD080216A4B090110
:1026C00019608021694B490051602361684B5A6849
:1026D000FF2A00D85960032201215B4B1A60644A2B
:1026E00093681942FCD0E0231068034061480360FE
:1026F000126803234A40022113405D4A0360936835
:102700001942FCD080215C4B0901196080215B4B90
:102710004900516063615A4B5A68FF2A00D85960DA
:102720008022584B12011A60E169002907D06069C4
:1027300001F0FAFE013043001B18033BFDD2E023F9
:102740004F4A11680B4050490B6080214F4B0901E3
:1027500019608021394B49005160E3614C4B5A6844
:10276000FF2A00D8596080224A4B12011A60216A60
:10277000002907D0606901F0D7FE013043001B1823
:10278000033BFDD2E023424A11680B4042490B60F3
:102790008021424B0901196080235B005360802235
:1027A000264BD20223623E4B5968914200D25A60B6
:1027B00080223C4B12011A60616A002907D06069CF
:1027C00001F0B2FE013043001B18033BFDD2E023B1
:1027D000334A11680B4034490B608021334B0901A7
:1027E00019608023DB025360154B6362304B5A68DB
:1027F000FF2A02D8802252005A6080222D4B1201FB
:102800001A60A169002907D0606901F08DFE0130CE
:1028100043001B18033BFDD2E023254A11680B40FF
:1028200025490B608021254B0901196080235B003D
:102830005360124BA361F7E6580F0020006CDC02D6
:102840001BB70000008000403CB0004030B00040AA
:10285000002F685900800240008C864700C002406B
:10286000308000403090004030A00040001BB70096
:102870003C8000403C9000403CA000404059730721
:102880005480004054B000405490004054A0004098
:102890006080004060B000406090004060A0004058
:1028A0006C8000406CB000406C9000406CA0004018
:1028B0004880004048B000404890004048A0004098
:1028C000F8B5040022481E0017000D0001F02CFE90
:1028D0000100380001F028FE069B36041B031E434E
:1028E0002368002B22DB1B4B1B49E3185A1E934124
:1028F0008022920194465B421B0B184A1B036344DF
:102900001360174A13601F008A689743FBD1C022E7
:10291000231D92011A4321232560A06013602368C0
:10292000002BFCDA0823E6601360F8BD3F23226821
:102930001340AB42D7D1A3681B051B0D8342D2D1F4
:10294000EE22E368D2021340B342CCD1EDE7C04699
:10295000001BB7000040FDBF00C0004000E0004089
:1029600000F000408023024A9B000343D36270477B
:102970000080054010B580241C4BE4051C60002835
:102980001AD001231A4C18431A4BDC611A4C4440EC
:102990001C62596298628021144BC905196017485E
:1029A00017490860E021C9041960002A07D1802274
:1029B000144B12061A6010BD0E4BD861EBE75301A1
:1029C0009B1A9B009A18802312015B049A4209D239
:1029D00013000D490B60074B5A608022094BD2054A
:1029E0001A60E8E7094B1A00F3E7C04600B005405B
:1029F000D3C007B0008005402D3FF84FFCFF010019
:102A00000820014000A00540341D0020FFFFFF000A
:102A1000AA23064A1B0113602F230549D360054BE7
:102A200019605368002BFCDA7047C0460040024032
:102A300000B0FA00006002402C4B2D4A70B51A60BD
:102A40002C4A2D4B2D491A6014008B689C43FBD1F6
:102A50002B4D2C4EB54208D2013E761BB60808CD50
:102A6000984723000134B342F9D1FFF7C5FD264A48
:102A7000214B1A60214A9368DB43DB01DD09002BFF
:102A8000F9D14022214B224C224E9A675A671A678D
:102A9000DA66B44208D223682000002B20D0083424
:102AA000FEF778FEB442F6D31B4C1C4EC022B16830
:102AB000200002F07FFCB460FEF76EFBFEF72CFEF8
:102AC000FFF714F8164C174EB44208D2013E361BDD
:102AD000B60808CC98472B0001359E42F9D170BD4D
:102AE0000834FEF749FEB442D5D3DDE700E00040EC
:102AF000BFCDFBFEFE7F3C0000F0004000C0004068
:102B0000380F0020480F0020FFFFFF0100F00140B8
:102B1000300F0020380F00200000002000ED00E002
:102B2000480F0020540F002000BEFDE710B5FFF74E
:102B3000FBFFC0460FB400B5084883B002F014FD97
:102B4000049B002B07D005A91800019101F072FC2D
:102B5000034802F009FD0120FFF7E6FF4895001049
:102B60005895001010B50148FFF7E4FF5C95001080
:102B70007047C046F8B55746DE464E464546E0B576
:102B800099460A9B07009A460D9B884693460B9CE4
:102B90009B073BD10C9B9C423DD21E1B0B94150006
:102BA0000C005E442A004B46013521002020B84726
:102BB000B542F7D1A0460B9C002C20D045463619D3
:102BC0005346321B013C185D29004B46B847002C88
:102BD000F6D12B00350098460D9B9B070FD55B4621
:102BE000EC1A0C9BA3420AD9464698462A004B464B
:102BF000310020200134B84701354445F6D3280080
:102C0000F0BCBB46B246A946A046F8BD160015006A
:102C1000002CD3D1E0E716001500002CCED1EEE752
:102C2000F0B54546DE4657464E46E0B585B09C4673
:102C300010AB1B78149F934698460F9C129E139DD1
:102C4000BB074CD4002D42D1B44248D201233B40B3
:102C500099460E9B013B9A46302304E052460134CC
:102C60001355A64201D9202CF8D14B46002B00D198
:102C700083E00E9B013B99463023A54205D82EE008
:102C80004A4601341355AC4229D0202CF8D1FB061A
:102C90000CD57B0554D4A64263D0A54261D0119BCC
:102CA000102B50D0022B57D0202C32D1202301934F
:102CB0000E9B5A460093039763460295FFF75AFF0F
:102CC00005B0F0BCBB46B246A946A046F0BD012304
:102CD0003B40994601233B422AD1B442B9D3FB067B
:102CE0001CD57B05DBD4002CD5D1119B102B5BD0E0
:102CF000119B022B6BD0302301240E9A1370434694
:102D0000002B10D17B073ED52B260E9A631C16553F
:102D1000CDE72300013430260E9AD654202CC5D09E
:102D20004346002BEED02D260E9A631C1655BEE7A7
:102D30004346002B2FD0013DB44200D289E798E7EB
:102D4000119B102BB2D1BB0637D5202CAED0582307
:102D50000E9A13550134A7E7202CA7D02300013485
:102D600007E0631E012CC0D0119A102A31D0022A2C
:102D7000D1D162260E9AD65496E7FB06CED57B05B6
:102D800000D488E78BE723003E0790D520260E9AD3
:102D9000013316558BE70C233B405A1E9341ED1A25
:102DA000B44200D255E764E7BB060ED478230E9AEE
:102DB0000224137030235370A1E7202C00D175E753
:102DC00078230E9A135501346EE75823EFE76033EA
:102DD000EDE70E9AA61E91464E44BA0602D5582239
:102DE000327098E77822327095E7C04610B5002817
:102DF00000D110BD02F06EFBFBE7C0460B0010B522
:102E0000002802D049681B68984710BDF0B55746A6
:102E1000DE464E464546E0B595B083460F009246E5
:102E200098461E9A1F9B10001900209E01F045FE37
:102E3000002800D0EAE11E981F990122C54B52429A
:102E400001F020FE002800D014E11E981F990122F5
:102E5000C14B524201F02CFE002800D0E9E01E9840
:102E60001F990022BD4B01F023FE002800D0C8E0CE
:102E70001E981F990022BA4B01F004FE002800D0D2
:102E8000BFE01E981F990022002301F0FBFD0028DF
:102E900000D0E4E000230B93229B5B0500D40626C0
:102EA0000024302307E0172106AA013452181355D5
:102EB000013E202C01D0092EF5D81E981F9901F053
:102EC00027FEA84BF2009B181A685B680500089261
:102ED000099301F005FE02000B001E981F9901F0F6
:102EE0005EFD089A099B01F08AFD0690079101F0AA
:102EF00033FE814601F0F0FD02000B0006980799B1
:102F000001F04DFD0022984B0690079101F0D0FD95
:102F1000002800D10DE101239C46E144484601F020
:102F2000DBFD02000B000898099901F0B1FD0028B3
:102F300002D0002399460135002E00D1D9E0069534
:102F40004D46B94614E006AA944617230A21634465
:102F5000280001341F1901F0E7FA303139702800D8
:102F60000A21013E01F0E0FA092D00D817E1050021
:102F7000202CE8D14F46069D20240CAE06AA17232C
:102F80009446634499465B46B34606930FE04B462E
:102F900028000A210134E61801F09EFA3031280099
:102FA00031700A2101F098FA051E00D1E4E0202CCE
:102FB000EDD1069B5E469B460323229A1340012BCC
:102FC00018D1219B002B15D00B9B002B00D1FDE0CD
:102FD000219B013B2193202B0CD93023219A07E020
:102FE000172006A9013409180B55944200D3CCE0F0
:102FF000202CF5D1229B01940393219B00960293F0
:1030000022E0229B52460493219B390003935846A9
:103010001E9B1F9C029600930194434600F04AF9C0
:103020000400200015B0F0BCBB46B246A946A0463D
:10303000F0BD229B5B070FD403224C4B22990192D7
:103040000391219900930291434652463900584614
:10305000FFF790FD0400E4E70422454BEEE71E9ADB
:103060001F9B0020002101F09AFC01231E901F915C
:103070000B9311E7229B54469B0711D1219B042BF4
:103080000ED9219B55469C465E46043C64442A006A
:103090004346013539002020B047A542F7D1B34659
:1030A000344D26002B1F99465B46A3461C00320078
:1030B000E87843463900013DA04701364D45F6D139
:1030C00023005C469B46229B04349B07A9D55346AC
:1030D000219AE31A9A42A4D95E461500220043467B
:1030E00039002020B04753460134E31A9D42F5D8F9
:1030F00097E7280001F0F4FC02000B001E981F99CE
:1031000001F04DFC0022184B0690079101F0BAFC2B
:103110000CAE002800D031E7069807990022124B28
:1031200001F0C6FC002800D028E7012301359D43AB
:1031300024E70022069807990B4B01F0A3FC002816
:1031400000D0F9E64B46002B5CD101239C46E144BC
:10315000F2E6C046FFFFEFFFFFFFEF7F65CDCD41F9
:1031600065CDCDC1589800100000E03F709500106B
:103170006895001078950010069B5E469B460323D9
:10318000229A1340012B00D181E0202C00D131E79D
:103190000B9B002B27D02D23335501342AE74F46B4
:1031A000069D202C00D1E7E63022331907E01720D6
:1031B00006A9013409180A55202C00D1DCE6A342E7
:1031C000F5D12E220CAE0134F254D7E60C23229A0C
:1031D000134257D0219B013B2193A34200D9FCE627
:1031E000202C00D106E7229B5B0703D52B23335508
:1031F0000134FFE6229B1B0700D4FBE62023335556
:103200000134F7E6DB0700D496E69EE7229B55469D
:103210009B0711D1219B032B0ED9219B54469C4621
:103220005E46033D654422004346013439002020B8
:10323000B047AC42F7D1B346B9465F461C4EEC1CD2
:103240002A00B078434649460135B847013EA542B9
:10325000F6D1229BBB464F469B0700D4E1E653467E
:10326000219AE31A9A4200D8DBE65E461500220056
:10327000434639002020B04753460134E31A9D42AB
:10328000F5D8CEE6219BA34200D9A6E6B2E6219B63
:10329000002B00D179E70B9B002B97D0219B013BA2
:1032A00021939C4200D298E6202C00D073E7A1E63F
:1032B00074950010F0B5DE4657464E464546E0B5DB
:1032C00099B081468B4692469846229A239B1000DD
:1032D000190001F0F2FB002800D0CAE022982399DF
:1032E0000122824B524201F0E3FB002800D0C0E0F3
:1032F0002298239901227E4B524201F0C3FB002801
:1033000000D0B6E0229823990022002301F0BAFBF6
:10331000002800D0C9E1229B239C089309940898B7
:1033200009998023269ADB001A400D928022269C60
:103330001201144022000B94269C07000E001C4230
:1033400000D0ADE00B00034300D0D5E0002A00D050
:103350000AE2220006332493022313400C93022333
:10336000134200D002E2259B042B00D20FE2043B63
:103370000B93002304250A9300222298239900230B
:1033800001F080FB002800D003E25A4B269A13403C
:1033900004930B9B0393249B0293089B099C00932B
:1033A00001945946434652464846FFF72FFD020016
:1033B0002020269B1F27034059424B415B42184067
:1033C000531C0893594643464530C8470A9AD317B9
:1033D000D4185C40D30F0A936B1E0B9308AB9C462A
:1033E0000025674401E0202D0FD020000A2101F0C4
:1033F0009BF801357E193031317020000A2101F02F
:1034000093F826000400092EEDD8052306930B9BA4
:1034100059460593002304930A3303930A9B4846B5
:10342000029310AB0093089A43460195FFF7F8FB0F
:103430000C9B002B2DD05346C41A259BA34228D9A0
:103440004D465F4681461E00534639001A1920201A
:1034500043460134A847A642F6D853464846259924
:10346000C21A01320023914200D386E101301818BC
:103470000FE0269B0493259B0393249B0293229B9E
:10348000239C009301944346524659464846FFF711
:10349000BDFC19B0F0BCBB46B246A946A046F0BD83
:1034A00001432BD10B9B2200002B00D154E70023BA
:1034B0000A93249B0A9A0024934200DD85E1229816
:1034C00023990022002301F0DDFA002800D035E125
:1034D000269B084A02941A408023DB00134304937E
:1034E000259B0393089B099CCBE7C046FFFFEF7F1A
:1034F000FFFFEFFFFFF7FFFF06232493B44B70009D
:103500009C46400D604401F0EBFAB24AB24B01F028
:1035100076FAB24AB24B01F04BFA3603B14B360B96
:10352000334304000D00380019000022AE4B01F0B7
:1035300036FAAE4AAE4B01F062FA02000B002000F0
:10354000290001F035FA01F0E3FA0A9001F0C8FA17
:10355000A84AA94B04000D0001F051FA0022A74B24
:1035600001F026FA01F0D4FAA54A0600A54B200086
:10357000290001F044FA040030000D000C9601F01F
:10358000AFFAA14AA14B01F03AFA02000B00200069
:10359000290001F004FA02000B0006000F0001F000
:1035A0002EFA320004000D003B003000390001F01B
:1035B000FFF900220E900F91954B2000290001F099
:1035C00000FA0022934B01F0F3F902000B002000F7
:1035D000290001F0F6F900228F4B01F0E9F9020011
:1035E0000B002000290001F0ECF90D0080210400FF
:1035F00032003B000020C90501F0D1F902000B00A8
:103600002000290001F0D4F902000B000E980F9958
:1036100001F0D7F90022734B01F0CAF97F4B0C9CE3
:103620009C4664440022230501F0E9F906000F00DE
:1036300002000B000898099901F024FA00280AD02A
:103640000A9B3000013B39000A930022714B01F0C4
:10365000B8F906000F000A9A330063323900C62A0F
:1036600012D802222698042510400B9A0C90002AAA
:1036700025D1259B042B05D9002800D0A1E0259B4E
:10368000043B0B93042541E00222269810400B9A3C
:103690000C90002A12D1259B052B76D9002872D1D7
:1036A000259B0525053B0B9334E0802212069446AA
:1036B000229B0893239B6344099330E605250B4323
:1036C00000D1F6E608980999554A564B01F0E8F9F9
:1036D000002808D0089809990022534B01F0D2F92C
:1036E000002800D0E5E6249B002B1CD00D9B002B6E
:1036F00019D0249B013B2493259BAB4204D90C9BFE
:10370000002B5AD002230C9300230B930A9B002B0F
:1037100000D131E60898099932003B0001F051F9D7
:103720000890099128E6259BAB42EDD90C9B002B14
:1037300043D000230B9302330C93E7E78020269BB2
:103740003A4A00061A40802384460294089C099D48
:103750002900DB0013430493259B6144220003935B
:103760000B00009201938EE60524A8E600230B933C
:103770000A93023304250C93FEE553468C46013B25
:1037800063441B1A72E602230C930525C2E7042347
:10379000EDE58020089E099F000639008446269AA0
:1037A000224B6144134004930B9B32000393249BF0
:1037B00002930B0000920193F3E5259B5B1B0B9397
:1037C000A4E7022304250C93A0E79C1A013C76E6AB
:1037D00001FCFFFFFB799F501344D33FB3C8608BBC
:1037E000288AC63F0000F03F0000F83F61436F6346
:1037F000A787D23F71A379094F930A400000E03FA9
:103800001655B5BBB16B0240EF39FAFE422EE63FCA
:1038100000002C400000244000001840FF0300007E
:103820002D431CEBE2361A3F80842E41FFF7FFFF49
:10383000F0B5DE4657464E464546E0B5A5B01E00FB
:103840002E9B92460C93CD4ACD4B80468B461A60F8
:10385000002900D1EAE1002330789946002800D100
:10386000ECE1C84B4C460B93C74B454657460E936D
:103870000AE0631C984622003B005946A84744468C
:103880003078002800D187E001362528F1D10823BF
:103890009A46043B9946023B9846013B00229C46CF
:1038A0000D943078711C0300203BDBB2102B03D841
:1038B0000B9C9B00E3589F460300303B89460D9CC0
:1038C000092B3AD9002398462A2800D1C1E00023C9
:1038D0009A462E284BD00300683BDBB2122B1ED831
:1038E0000E999B00CB589F4663460E001A43D8E7BB
:1038F00043460E001A43D4E74B460E001A43D0E766
:1039000010230E001A43CCE753460E001A43C8E7B3
:1039100080235B001A43FF3B9C467078E1444E468F
:1039200067284FD82428A4D90300253BDBB2422BBB
:103930009FD896499B00CB589F46002394461E0073
:1039400000E00131B3009B195B001E180878303E7F
:103950000300303B092BF4D90123624689469C467B
:103960000023B0469A460E00E1442E28B3D1302100
:10397000802049428C46C000024370784B46844404
:103980006146092900D86CE12A2800D17AE1012397
:103990009C464E46E1449EE7A146A846BA46CA4523
:1039A00003D801235B425344994653464A4659463D
:1039B0000020C047200025B0F0BCBB46B246A94657
:1039C000A046F0BD0300693BDBB20D930F2B00D97D
:1039D0004FE7012199408C466D49894661464B4627
:1039E00019400F91634649460B4200D028E10D9BD8
:1039F0000A2B3AD0072B00D03BE70C9B190008C9D3
:103A00008846002B00D14BE121200243914614A9A6
:103A10008C461F220F2162448C4651460D950C9115
:103A2000A24615000F9902E020290CD0130064462D
:103A30001C4020003730092C00D807380131685469
:103A40001A090F2BF0D80C9B54460D9D9A460F91E6
:103A500033E10C9B02CB8846002947DB0C93012302
:103A60009C4670784E46E14431E70C9B02CB1493A0
:103A70005346002B00D138E19C4608780B000C908F
:103A80008C44002801D100F098FC89466146944698
:103A900003E05A780133002A01D08B42F9D149461C
:103AA00062465B1A0C900F93530500D520E1022368
:103AB000180010400D90134200D1CBE30D930B1B67
:103AC000B1469A465E460C9822003B003100A8475A
:103AD00053460134185D0028F6D1B3464E460D9B7F
:103AE000002B00D0C7E1149B0C93C9E60C93012373
:103AF0009C46283849420243884670784E46E14445
:103B0000E5E670786C2800D17FE180235B001A43E2
:103B1000FF3B9C46E14402E780239B001A430123BC
:103B20009C467078E144FAE67078682800D173E129
:103B300080231A437F3B9C46E144F0E6672800D18E
:103B400003E1472800D15AE1452800D15AE1049207
:103B5000072142460C9B0392073352468B431900C0
:103B600002920CC92800009201930C9122003B00A4
:103B70005946FFF79FFB040082E6C046313800102B
:103B8000301D0020B8960010FC96001048970010D9
:103B900041900000462800D1DBE004920721424614
:103BA0000C9B0392073352468B43190002920CC9B7
:103BB0002800009201930C9122003B005946FFF728
:103BC00025F904005CE6631C984622003B00594638
:103BD0002520A847444653E60C9B04330D93631CF1
:103BE0009946920700D422E10C9B2200187859468E
:103BF0003B00A84743464444012B00D885E23300EC
:103C0000B8462E005F4625004C46994622004346A2
:103C1000013439002020B047AC42F7D12C00BB461C
:103C2000350047464E460D9B0C9329E6DB4B30781A
:103C3000984600239946002800D012E60024AEE6FC
:103C40006F2800D188E000D80BE31023782800D13A
:103C5000CFE09A430A239C4600230F930A330D9327
:103C600080E05646B1008919490001330E181878D2
:103C7000303E010030390929F4D9B2461E00013323
:103C8000994628E60C9B023602CB8A46C943504629
:103C9000C917084082460C933078731C99461AE67F
:103CA00010231000984311331843814680201300DD
:103CB000C0000340024200D1A9E64B460693082308
:103CC00005935346049310230393002302930F9B01
:103CD000220001931CAB009359463B002800FEF7DD
:103CE0009FFF434604000C93CAE501235B42C3E6F1
:103CF0000F9B534501D953460F93022318001040E0
:103D00000D90134200D1B7E10D93D1460B1B9A469B
:103D10003300A1442E0022004D460C98B9465F4660
:103D20009B4608E04B463900541CB0475346185D8B
:103D3000002877D022009542F4D15B46BB464F461F
:103D4000A94635004C461E00C9E680231B011A43D4
:103D5000FDE620231A4320E708239C4600230F9307
:103D600008330D9380231100DB0019401A4200D163
:103D700016E10D239A431000802302009B001A4095
:103D80001492184200D0C2E1802302005B001A4066
:103D900091460C9A04320F92184200D0B7E24306C3
:103DA00000D59FE1030600D419E30C9B1B880993FF
:103DB000002B00D0FCE110339843002900D1F7E13B
:103DC0000023994643460593534604930D9B069062
:103DD00003930023D2E0582808D0622867D1022339
:103DE0009C4600230F9302330D93BBE720231A4315
:103DF000103B9C4600230F9310330D93B2E78023B2
:103E00001B011A4320231A43A1E6C0239B001A4337
:103E1000F31C9946B07882E5C0231A43F31C9946F7
:103E2000B0787CE535005E46BB464F4657E64346D4
:103E3000012B00D863E1631E43449A463300B94620
:103E40002E005F4655469B46A24622004B46013453
:103E500039002020B047AC42F7D135005E46BB4662
:103E60004F46A14654460C9B4A46187859463B009B
:103E70004444A847D7E6A1460F9B984500D832E6B0
:103E80004444E41A3300B8462E005F4625004C46F1
:103E9000994622004346013439002020B047AC4205
:103EA000F7D12C00BB46350047464E461BE6802323
:103EB0001000DB0018401A4200D10FE11121180058
:103EC0008A430D920D9A802311009B0019408C4665
:103ED0001A4269D1802311005B00194089460C9970
:103EE00004310F911A4200D0CAE113005B0600D5DD
:103EF000F0E013001B0600D459E20C9B00229B5EED
:103F0000D9175A184A4092B2D90F0C91002B00D100
:103F1000F9E1100014AA944642461F231492524617
:103F20006344A84616944D460400B946B2461F00A5
:103F3000159201E0202D0FD020000A2100F0F4FAA4
:103F400001357E193031317020000A2100F0ECFA81
:103F500026000400092EEDD8149B4F46A94645467D
:103F60009846159B56469A46169C0D9B06934346CB
:103F70000593534604930A2303930C9B02934B46E9
:103F800001931CAB2200009359463B002800FEF72A
:103F900047FE0F9B04000C9372E4C046712B001087
:103FA0000C239A431000E7E607220C9B0733934348
:103FB000013294469C4462460C920CCBD90F0F916F
:103FC0001100194300D191E0D9171391129151407A
:103FD000109113995940119110981199129A139BAD
:103FE000801A99411090119114AA002394464246D8
:103FF0009946149252461F336344A846B24616941B
:104000004E46109C119DB94615921F0001E0202ECE
:1040100010D0200029000A22002300F0C3FA013644
:1040200030322B00BA550D0022000400002BEED1D7
:10403000092AECD8149B1094119545469846159B77
:104040004F46B14656469A46169C0D9B06934346EC
:104050000593534604930A2303930F9B02934B4605
:1040600001931CAB2200009359463B002800FEF749
:10407000D7FD0400FFF704FC0F9B984500D8C1E171
:104080008023DB000D9343460F9A1B199B1A994618
:1040900033002E004D46B9465F469B460C912200E8
:1040A0004B46013439002020B047AC42F7D143469B
:1040B0000C9901330F930B7835000C935E46BB4689
:1040C0004F46002B00D10EE50D9B002B00D1F6E4EE
:1040D000002319E60C9B1B781A0015E710239A435E
:1040E0000D92EFE60C9B1B78099361E6002399463D
:1040F0000028AAD1002200231092119374E70C9B90
:104100002200187859463B00A8474C468BE50C9A8C
:10411000FA3BFF3B07329A430133994691444B46A1
:104120000C931368526815921A4306D110329043CB
:1041300000220992002900D081E06122810600D589
:104140004122D2B20A9214AA91460A9A00210A3A4E
:10415000149242461792524618925A460991B34613
:104160001F311E000F9B4944BA4619941A9500242A
:10417000674698468946159D16901B920AE0303294
:10418000D2B24B4601341A55A8454AD0202C4AD009
:1041900006000D003A0000233000290000F002FA6A
:1041A000D2B2092AEBD9149B9C466244D2B2E8E70A
:1041B0006123820600D54123DBB20A3B0C934346C0
:1041C00014A91F228C46159353466244A046B2465A
:1041D0004C461797A9461700099D0D9E14901693FB
:1041E00008E03033DBB201343B55B5420ED3202C0E
:1041F0000CD005003100280000F096F9CBB2092957
:10420000EFD90C9A94466344DBB2ECE7159B4D461C
:10421000A14644469846169B564614989A46179FC0
:10422000D0E5B742B2D9179B57469846189B5E46D1
:104230009A461B9B09949B461698199C1A9D4346C7
:104240000593534604930D9B06900393002302931A
:10425000099B05E70F9B984500D914E701330F939D
:104260002DE41023110099430D91692800D0BAE084
:1042700080231000DB0018401A4200D122E61DE620
:104280000C9B1B68DA0F1100002B00D18CE0DA17B1
:104290009818504014AA914642461F231492524641
:1042A0004B44A046A946169704006546B2461F0037
:1042B0000C91159201E0202D0FD020000A2100F072
:1042C00033F901357E193031317020000A2100F0B8
:1042D0002BF926000400092EEDD8149B444698467D
:1042E0000C9BAC461900159B56464D469A46169FA8
:1042F0000D9B0291069343460593534604930A236C
:10430000039363463CE6002800D02EE602E60C9BB1
:104310001B689946002B03D110339843002938D1EC
:104320006123820600D54123DBB20A3B0C9343464E
:104330001693534614A91F228C4617932B006244F0
:10434000A0464D46B246189799461700149C0D9EFC
:10435000159008E03033DBB201343B55B5420ED343
:10436000202C0CD005003100280000F0DDF8CBB285
:104370000929EFD90C9A94466344DBB2ECE7169B0B
:10438000149444469846179B56464D469A461598AF
:10439000189F43460593534604930D9B0690039341
:1043A00000230293149BEBE50028A1D172E70C9B3C
:1043B0001B68D9175A184A40A6E580231000DB0075
:1043C00018409C460F901A420FD002200300134061
:1043D0000F93104219D00023A1460F934CE50C9B7C
:1043E0001B680993E4E40A0034E402231800104037
:1043F0000D90134200D03EE54346002B00D042E62C
:10440000FFF771FB01330F937FE463460D93F3E7EE
:1044100010B50C0084B00394012402A9029000930B
:10442000034813006242FFF703FA04B010BDC04610
:10443000FD2D001010B5094A0300146884B0002C4B
:1044400008D0012200910648524203A9A04701204A
:1044500004B010BD01F088F80020F9E7301D0020FD
:10446000ED2D001001480421014B1847D00E00200B
:1044700095440010002310B50100988A1B8B9847C3
:1044800010BDC046162310B50100188802331B88E2
:10449000984710BDF8B54746CE4680B50F1E18D0D8
:1044A00014239946043304000025012698464B4600
:1044B0001888434621681B88984701C4431E9841C9
:1044C00001350640AF42F2D13000C0BCB946B0461B
:1044D000F8BD0126F8E7C046124A936F9B0815D233
:1044E0009066D166002905D0FFE7FFE7FFE7516F2F
:1044F000106F704704B580210906C217514000288B
:1045000000D0C84304F088F8002104BDF0B5146E53
:10451000556E576F166FFFF7E3FF146655665767C2
:104520001667F0BD000000D0114A936F9B0813D2AC
:1045300010665166002905D0FFE7FFE7FFE7516FDE
:10454000106F704704B5002801D00020C04304F06C
:1045500063F8002104BDC046F0B5146E556E576F68
:10456000166FFFF7E5FF1466556657671667F0BDCF
:10457000000000D094464A4A926F9208624601D2E7
:1045800028E0C046F0B5464E346E756E776F366FD4
:1045900000F020F89446424A14665566576716673D
:1045A0006246F0BD94463E4A926F9208624601D23E
:1045B00054E0C046F0B53A4E346E756E776F366F84
:1045C00000F04CF89446364A1466556657671667ED
:1045D0006246F0BD002B24DB11D000293EDA00B585
:1045E000C943404200D1013100F038F8C94340428C
:1045F00000D10131DB43524200D1013300BD002A1A
:10460000EBD1002801D1002905D00020C90FC9072E
:1046100001D1C043410800B503F0EEFF00220023A2
:1046200000BD00B500290ADBDB43524200D1013353
:1046300000F014F8C943404200D1013100BDC94324
:10464000404200D10131DB43524200D1013300F03E
:1046500005F8DB43524200D1013300BD002923D1CC
:10466000002B18D1002A0CD0BC460D4F38667A6654
:1046700000210023FFE7FFE7FFE77A6F386F674607
:104680007047002801D00748010000B503F0B4FFCF
:104690000022002300BD02000B0000200021704713
:1046A000000000D0FFFFFFFF002B00D0BFE0130C85
:1046B00028D1002AE7D080B4114F39667A66FFE727
:1046C000FFE730B4040C7B6F396F1B0423433B6658
:1046D0007A66FFE7FFE7FFE7C04684B27B6F3D6F76
:1046E0001B0423433B667A66FFE7FFE7C0460023CF
:1046F0002C042D0C7A6F386F00196941B0BC7047DB
:10470000000000D0F0B594460025140E01D112022D
:104710000835140F01D112010435940F01D1920014
:104720000235D40F01D152000135D40B0134254F8D
:104730007C66254C3C660E0C93B2FFE7FFE7FFE773
:104740003C6F6643360C7703BE467343DF0B5B0456
:10475000C01AB941130C7343DB18C91ACE0866435B
:10476000360CB64493B273431F0F1B01C01AB941F4
:10477000130C73431F0B1B05C01AB941860D8F0222
:104780003E436643360C092D24DB520A7243801ADD
:104790007703460A6643360C16235B1BDE40DF4078
:1047A000BF1964466643821B704604350633010018
:1047B000D940A840C01900D30131A24206D200233B
:1047C000F0BD0000000000D0FFFFFFFF121B013012
:1047D000F3D3F1E709277F1BFE406446A2B2724380
:1047E000801A00D20139220C7243130C1204821A6F
:1047F00099410B007046043513370100F940A84079
:10480000801900D30131002B02D1A2420AD2F0BD9F
:10481000013000D30131121BFAD2013BF8D1A24280
:1048200000D2F0BD013000D30131121BF7E7F0B523
:104830001C0C00D080E00CB400251C0A04D11B0223
:10484000160E3343120208351C0B04D11B01160F40
:104850003343120104359C0B04D19B00960F334364
:1048600092000235DC0B02D192185B4101351C002D
:10487000971864410134464F7C66464C3C660E0CEA
:10488000FFE7FFE7FFE7C0463C6F6643360C770360
:10489000BE4697B27743C01B00D20139C01B00D27D
:1048A00001399FB27743C91BC91B170C77437E049C
:1048B000FF0B801BB941CE086643360C0C2D33DB51
:1048C000B644120B1F053A431B0B97B27743C01B2C
:1048D00000D201399FB27743C91B170C77433E04BE
:1048E0003F0C801BB941860D8F023E43664329274A
:1048F0007F1BFE400C3D7746AF40BF1930BCA2B2D3
:10490000ABB272437343801A9941220C7243130C69
:104910001204801A994102000B000137001BA941C3
:10492000F9D2781E0021F0BD0C277F1BFE40774690
:104930007F0BAF40FF19E0E700245D1C07D0144F48
:104940007D663966FFE7FFE7FFE7FFE73C6F95B25B
:104950009EB265436643401BB141150C1E0C654376
:10496000664336042F0C3E432D04401BB14199424F
:1049700004D202000B0020000021F0BD01D19042C2
:10498000F7D3801A994101349942F2D3F6E7000037
:10499000000000D0FFFFFFFF48404140484018B4EE
:1049A0001B4B5B68FC46019308BD04DF3B4C0010C9
:1049B00018B4174B1B68FC46019308BD00DF454C3B
:1049C00000109446134A926F920809D2624618B4B6
:1049D0000F4BDB68FC46019308BD0CDFFD4E001059
:1049E0000C4AF0B5146E556E576F166F6246FFF79E
:1049F000EEFF084A1466556657671667F0BD18B48F
:104A0000034B9B68FC46019308BD08DFA14D0010D5
:104A100088100020000000D0FFB5504042405040B8
:104A200059404B40594000E0FFB5154F4C00640D14
:104A300003D0BC4204D10C0314D80020090D090591
:104A40005C00640D03D0BC4204D11C030AD80022D0
:104A50001B0D1B0501264B4009D44B4003D58B424F
:104A600000D18242FFBD9942FCD19042FFBD0B4371
:104A7000DB1803431343F5D0C9434918FFBD0000B9
:104A8000FF07000000B5FFF7CFFF804100BDC04623
:104A900000B5FFF7C9FF01D9002000BD012000BD0E
:104AA00000B5FFF7B9FF01D9002000BD012000BD0E
:104AB00000B5FFF7B1FF804100BD012040054A006D
:104AC000121804D85A00121801D80020704701208B
:104AD00070470020704700000021002805D1704772
:104AE000C1174840401AFAD0C90713B5064B1B68D6
:104AF00098470CBC441CA2401005120B0349091B2B
:104B000009051943114310BD901D00201F0400002A
:104B100010B54C00620D8023D218DB00D21A5B0561
:104B20007E2A10DD9E3A13DACC170903490819438F
:104B30005242D140640001341532202A05DAD040B7
:104B40000843604310BD002010BD0846604310BDFF
:104B5000C80FC018013810BD18B4044B5B6AFC467E
:104B6000019308BD24DFAD50001000008810002024
:104B7000132370B51D78012D15D010DD1D48FFF7EA
:104B800081FC1D4C01008022200000F013FC022D4E
:104B90002DD01A48FFF76EFC194B186070BD194BE9
:104BA000154CA364F5E7174B134C23606360A360B7
:104BB000E36023616361A361E36123626362A362D3
:104BC000E36223636363A363E36323646364A364B3
:104BD000E36423656365A365E36523666366A36693
:104BE000E36623676367A367E367A364D1E7054BC5
:104BF000A364CEE753440000881000204C3300002B
:104C0000901D0020094C001007B5604601880A0A73
:104C10000230DF2AFAD1C9B2820804D30288408860
:104C20000004104300E00068014A5050039007BDA3
:104C3000881000200FB403BC0CBCF0B50124E407BD
:104C4000634000E0F0B50C0DCF0F661E3605891BE2
:104C5000640503D3C943404200D30131640D03D03E
:104C6000661CF60A07D0E41B00207F00791C890728
:104C70008912803C24031D0DDF0F6E1E36059B1B21
:104C80006D0503D3DB43524200D301336D0D03D0D6
:104C90006E1CF60A07D0ED1B00227F007B1C9B07D1
:104CA0009B12803D2D032F1B661B58D4A446202E3B
:104CB00046DA20371400BC401D00BD40F2403341AD
:104CC0002A4380185941CB0F05D0C943C043002265
:104CD00064425041514162464D0D28D10D0D07D11E
:104CE00000281FD0241940414941013A0D0DF9D047
:104CF000640006D3013000D30131002C01D14008FB
:104D00004000013A0BD4941CE40A04D1120511446A
:104D1000DB071944F0BDD907204B194300E0D90740
:104D20000020F0BD0029DDD1002CDBD1F0BD013227
:104D3000C6074008CD0728434908002EE1D0D9E72F
:104D40003C2E29DA203E40371400BC4000D001241C
:104D5000F24014431A00BB401C43D317ACE7AC46E7
:104D6000202F08DA20360400B4400D00B540F8408A
:104D700039412843A5E73C2F0CDA203F4036040098
:104D8000B44000D00124F84004430800B1400C4373
:104D9000C117EAE710001900002494E70000F07F33
:104DA000F0B50C0D661E3605891BE60A6405640D18
:104DB00002D0651CED0A04D0002001210905803CC9
:104DC0002403A4461C0D671E3F05DB1BE70A640590
:104DD000640D02D0651CED0A04D0002201231B05DE
:104DE000803C24037740644497B484B296B2744301
:104DF000070C7E43150C6F4380B26843361802D30C
:104E0000012000043F183004350C00197D41844610
:104E100088B29AB250430C0C62431F0C7C438EB292
:104E20007E43921902D301263604A4191604170CE6
:104E30003618674101BC81B29AB25143040C6243F7
:104E40001B0C5C4380B25843121802D301200004AB
:104E500024181004130C401863412D185E410020E3
:104E6000474106BC88B293B258430C0C6343120C02
:104E7000544389B251435B1802D3012109046418D9
:104E800019041A0C091862416D1856410020474157
:104E900018BCF902720D1143F0026A0D1043ED02C5
:104EA0000A0D03D16D1940414941013B124E9B1B34
:104EB0007600B3420ED26D0007D301300026714157
:104EC0006646354301D1400840001B05C918E40778
:104ED0002144F0BD0BDA013306D1013004D1013198
:104EE0004F0D01D04908F2E7E1070020F0BD01367F
:104EF00031050020EBE70000FF030000F0B51C0DBA
:104F0000671E3F05DB1BE70A6405640D02D0661CC3
:104F1000F60A04D0002201231B05803C2403D0257F
:104F20002D060026F6432E661E096E66CE0FF61974
:104F3000B44649004F0D02D07E1CF60A03D0002073
:104F40000021403F3F033E1BB600B444013F7F05B4
:104F5000C91B49082E6F013676089C02950D254322
:104F60007543ED137543AD1301356D10F603761BD4
:104F70000CB4CC02450D2C43A2B2B3B25A43270C59
:104F80007B43350C6F43A4B26C431B1902D301243D
:104F900024043F191C041D0CA4187D4124196D41E3
:104FA000009A91B2ACB26143170C7C432B0C5F4367
:104FB00092B25A43A41802D301221204BF18220449
:104FC000230C52187B41019C6C431B19520ED901D2
:104FD0000A434401A01A81B2B2B2514303145A43A6
:104FE000360C734387B27743D617D21900277E4118
:104FF00036049B191704160C7F185E417316ED18C2
:10500000F301002680337541A90F06D16400690AB7
:10501000E8055B0A184309D22FE004229444803348
:105020007541A90AA8059B0A184326D34041494166
:105030002404009A019B0D005543641B4343E41A6A
:1050400095B286B27543170C7E43030C5F4392B250
:105050005A43B61802D301221204BF183204330C8B
:1050600052197B4152429C41002C02D40022013053
:1050700051414008CA071043490802B06246D707A9
:105080009210084BD218084B9A4203D21205891885
:10509000C919F0BD0020002A01DC3900F0BD013340
:1050A0001905F5E7FD030000FE070000002200B52A
:1050B000203200F004F8080000BD000000220B15AB
:1050C0000AD410B5944600F031F81414013400DA13
:1050D0000021CB17144C2047002000217047624468
:1050E000343A0CD40C2A07DA040091409040524222
:1050F0002032D440214310BDD843D94310BD2032C3
:1051000007D40C469440524220321141D0402043F3
:1051100010BD0800C917203203D45242203210417A
:1051200010BD1800190010BDDF5000100A0DCC0F83
:10513000531E1B05C91A520503D3C943404200D36D
:105140000131520D03D0531CDB0A07D0121B002083
:105150006400611C89078912803A1203014BD21A3C
:1051600070470000FF03000051434343C9188C46B9
:10517000110C83B24B4310B4040C614392B280B261
:10518000504362431C041B0C001910BC594113040A
:10519000120CC01851416144704700004840414022
:1051A00048400E4B5B6818470C4B1B6818470C4A6D
:1051B000936F9B0802D2094BDB681847F0B5146E59
:1051C000556E576F166FFFF7F6FF054A1466556662
:1051D00057671667F0BD014B9B6818478811002080
:1051E000000000D007B548404140484001E0C046BB
:1051F00007B54200120E03D0FF2A03D1420218D88D
:10520000C00DC0054A00120E03D0FF2A03D14A0286
:105210000FD8C90DC9050122414005D4414001D52F
:10522000814207BD884207BD0143491801D0C043F0
:10523000001807BD00B5FFF7DBFF804100BDC04689
:1052400000B5FFF7D5FF01D9002000BD012000BD4A
:1052500000B5FFF7C7FF01D9002000BD012000BD48
:1052600000B5FFF7BFFF804100BD491A002807D1F4
:1052700008467047C10FC90700D54042002817D023
:10528000F44603B40B4B1B68984706BC81409E381C
:105290004042803107D20B0607D04900490AC005B9
:1052A0001043084360470130F8E7490A8902F5E7EF
:1052B00070470000901D0020014B5B6A18470000FA
:1052C00088110020034BDB6FFC4618477CDF6953D5
:1052D0000010000088110020132310B512481C781C
:1052E000FFF7D0F80100012C0AD003DD80220F481F
:1052F00000F060F80E48FFF7BDF80E4B186010BDC7
:105300000A4C5422200000F055F80B4B6365A3654E
:10531000E36523666366A366E36623676367A36743
:10532000E3672362E361E5E753460000881100204C
:105330004C330000901D00203D53001007B560461F
:1053400001880A0A0230DF2AFAD1C9B2820804D3DE
:10535000028840880004104300E00068014A505071
:10536000039007BD88110020C30FDB0741000A0E20
:1053700007D0FF2A08D00909054A891819434007B0
:1053800070471900002070470249C918FAE7000069
:10539000000000380000F07F01480421014B18474D
:1053A000E00E002095440010014B1B6818470000D8
:1053B000E00E0020014B5B6818470000E00E002063
:1053C000F0B5C64600B5437D07000C001600002B63
:1053D00046D0002A17DD0B780A2B24D000239846EC
:1053E000012E13D001252900635C01350A2B26D03C
:1053F000B542F8D1464509DCA419013C23780D3BA0
:105400005A4253413B7580BCB846F0BD4346E01854
:10541000A419F11A013C3B68984723780D3B5A4286
:1054200053413B75EFE7037D002BD7D102210F4895
:105430003B689847012EDFD001239846D2E7631ED0
:105440005B5C0D2BD4D0884504DA4346C91AE018BA
:105450003B689847022105483B68A8469847C7E73C
:105460000368110020009847CDE7C046CC98001093
:10547000F0B5C6460B6806000C0000B5802B06D0C0
:105480005A1C2260E418267180BCB846F0BD0F4B50
:105490001D68002D16D00B1D98460D4F02E02D699A
:1054A000002D0FD02B68002BF9D03B68002B01D0CA
:1054B000AB42F4D1280041462268FFF781FF2D69F5
:1054C000002DEFD101220023DBE7C046FC180020AD
:1054D0001C190020F0B5CE46474680B583B06B4618
:1054E0000600DD1D2870FCF7B5FD0023194A1218CF
:1054F0004B41002B02DA0122174B52421749080098
:10550000884603F0A9F8164B81461C68002C14D07D
:10551000144F02E02469002C0FD02368002BF9D02F
:105520003B68002B01D09C42F4D1200001222900CD
:10553000FFF746FF2469002CEFD14B46002B05D125
:10554000300003B0C0BCB946B046F0BD404603F0E1
:105550004BF8F5E740420F00FFFFFF7F300F0020C0
:10556000FC1800201C190020F0B5DE464E464546CA
:105570005746E0B583B0060002F0FCFF0500FCF7DB
:1055800069FD0023284A12184B41002B02DA012240
:10559000264B5242264908008B4603F05DF8254B06
:1055A00081461C689A46002C38D00A23224F984620
:1055B00002E02469002C17D02368002BF9D03B6847
:1055C000002B01D09C42F4D120002A003100FFF7CB
:1055D000F7FE6B4642462000DA71D91D0122FFF723
:1055E000EFFE2469002CE7D14B46002B18D153461F
:1055F0001C68002C06D06368002B0BD098472469E8
:10560000002CF8D1280003B0F0BCBB46B246A94636
:10561000A046F0BD2469002CEDD1F3E70028F1D0BD
:10562000584602F0E1FFE2E740420F00FFFFFF7F34
:10563000300F0020FC1800201C1900200A4A1368B3
:10564000002B05D10CE01A001B691032002B07D08B
:105650008342F8D1002902D118691060196170479E
:105660000029FCD01060FAE7FC180020F0B5CE4607
:10567000474680B5A3B004000D00FCF7EBFC002307
:10568000274A12184B41002B02DA0122254B5242C5
:10569000254E300002F0E0FF0023220001930700B6
:1056A0002B00224801A9FEF7B3FE214B8046994604
:1056B0001C68019B002B1AD0002C2FD01D4D02E03E
:1056C0002469002C0FD02368002BF9D02B68002B05
:1056D00001D0A342F4D12000019A02A9FFF770FE85
:1056E0002469002CEFD14B461C6800230193002C49
:1056F00006D06368002B0BD098472469002CF8D1A2
:10570000002F07D1404623B0C0BCB946B046F0BD1B
:105710002469ECE7300002F067FFF3E70194EFE75C
:1057200040420F00FFFFFF7F300F00207154001038
:10573000FC1800201C1900200FB400B583B004A988
:1057400001C90191FFF792FF03B008BC04B01847EC
:1057500010B500F0D3F910BD7047C0460022014BD0
:105760001A707047DF1D00204B790020FF2B0BD1F2
:105770008B79002B08D1CB79012B05D1082A03D9CD
:10578000024B8A7809301A707047C046DF1D00202E
:105790000120704770B5012913D11449537910794C
:1057A00009781B0203430020994200D070BD537852
:1057B000012B08D0022BF9D1642200210020FDF733
:1057C000D9F80120F2E79478D27805001202144348
:1057D000D20502D5620A93401D000548FEF74AFE35
:1057E0007F210300214028009847C046DF1D00208C
:1057F000554200000123037000487047D098001004
:105800004B780A781B0213438A7810B512041A43A6
:10581000CB781B0613439622D200934200D010BDD2
:105820000348FEF727FE0021030008009847C04602
:1058300055420000024B1860024B19607047C04689
:10584000441800204818002010B5024B1878FBF7C8
:10585000E1FC10BDE01D0020114B70B51A68002A54
:105860001AD0EFF3108172B610680028FCD0BFF395
:105870005F8F00200B4A596010701B68BFF35F8F69
:10588000186081F3108800240025074B1878FBF777
:10589000C1FC2900200070BDFA240025A400F4E713
:1058A000701D0020E11D0020E01D002070B50400E7
:1058B00000200E0001F0DEFA002834D0002001F0B4
:1058C000F1FA00282FD0FCF7C5FB0023174A121865
:1058D0004B41002B16DB164D280002F0BDFE0028C0
:1058E00021D0002001F0C6FA00280FD101200021AC
:1058F000404200F0BBFC03246442280002F074FE26
:10590000200070BD01220B4B5242E4E7002001F061
:10591000C9FA0028EAD021003200002001F0CEFAB6
:10592000041EEAD1E7E703246442E9E740420F009E
:10593000A81D0020FFFFFF7FF8B5DE46574680B563
:1059400005000C00FCF786FB0023364A12184B4179
:10595000002B02DA0122344B5242344908008A46B5
:1059600002F07AFE002803D1C0BCBB46B246F8BDA7
:10597000002001F07FFA00284AD00026002C43DDE9
:105980002B4B9B4614E0A919002001F009FB0700EE
:1059900001200021404200F069FC002001F0C4FA1F
:1059A000FCF758FB224BF61918605960B4422BDD06
:1059B000002001F00FFBA71B0200B84200DD3A00F7
:1059C000002AE0D101200021404200F04FFC0020DD
:1059D00001F0AAFA002001F04DFA002814D00020AE
:1059E00001F0F8FA0028E1D1FCF734FB5B460F0028
:1059F0001A685B68002184460E4812184B419F428A
:105A000002D8D3D19445D1D9504602F0EDFDABE791
:105A100000200021064B18605960504602F0E4FD5A
:105A2000A2E7C04640420F00FFFFFF7FA81D0020F5
:105A30008010002020A1070010B5234C84B0002165
:105A4000200002F0F1FD00281CD1204B1A68002A2A
:105A500016D0EFF3108172B610680028FCD0BFF3A7
:105A60005F8F01241A48596002781B68D2B2047013
:105A7000BFF35F8F0020186081F31088002A0AD0DE
:105A800004B010BD01200021404200F0EFFB2000D7
:105A900002F0AAFDF4E7FCF75FF80400FCF7DAFA7D
:105AA000FA220023920012184B41002B02DA012245
:105AB000084B524201210291002101910649200028
:105AC0000091FCF74DF8DBE7A81D0020701D0020B9
:105AD000E11D0020FFFFFF7F59580010054B10B556
